{
  "_format": "hh-sol-artifact-1",
  "contractName": "Create",
  "sourceName": "contracts/votingContract.sol",
  "abi": [
    {
      "inputs": [],
      "stateMutability": "nonpayable",
      "type": "constructor"
    },
    {
      "anonymous": false,
      "inputs": [
        {
          "indexed": true,
          "internalType": "uint256",
          "name": "candidateId",
          "type": "uint256"
        },
        {
          "indexed": false,
          "internalType": "string",
          "name": "age",
          "type": "string"
        },
        {
          "indexed": false,
          "internalType": "string",
          "name": "name",
          "type": "string"
        },
        {
          "indexed": false,
          "internalType": "uint256",
          "name": "voteCount",
          "type": "uint256"
        },
        {
          "indexed": false,
          "internalType": "address",
          "name": "_address",
          "type": "address"
        }
      ],
      "name": "CandidateCreate",
      "type": "event"
    },
    {
      "anonymous": false,
      "inputs": [
        {
          "indexed": true,
          "internalType": "uint256",
          "name": "voter_voterId",
          "type": "uint256"
        },
        {
          "indexed": false,
          "internalType": "string",
          "name": "voter_name",
          "type": "string"
        },
        {
          "indexed": false,
          "internalType": "address",
          "name": "voter_address",
          "type": "address"
        },
        {
          "indexed": false,
          "internalType": "uint256",
          "name": "voter_allowed",
          "type": "uint256"
        },
        {
          "indexed": false,
          "internalType": "bool",
          "name": "voter_voted",
          "type": "bool"
        },
        {
          "indexed": false,
          "internalType": "uint256",
          "name": "voter_vote",
          "type": "uint256"
        }
      ],
      "name": "VoterCreated",
      "type": "event"
    },
    {
      "inputs": [],
      "name": "_candidateId",
      "outputs": [
        {
          "internalType": "uint256",
          "name": "_value",
          "type": "uint256"
        }
      ],
      "stateMutability": "view",
      "type": "function"
    },
    {
      "inputs": [],
      "name": "_voterId",
      "outputs": [
        {
          "internalType": "uint256",
          "name": "_value",
          "type": "uint256"
        }
      ],
      "stateMutability": "view",
      "type": "function"
    },
    {
      "inputs": [
        {
          "internalType": "uint256",
          "name": "",
          "type": "uint256"
        }
      ],
      "name": "candidateAddress",
      "outputs": [
        {
          "internalType": "address",
          "name": "",
          "type": "address"
        }
      ],
      "stateMutability": "view",
      "type": "function"
    },
    {
      "inputs": [
        {
          "internalType": "address",
          "name": "",
          "type": "address"
        }
      ],
      "name": "candidates",
      "outputs": [
        {
          "internalType": "uint256",
          "name": "candidateId",
          "type": "uint256"
        },
        {
          "internalType": "string",
          "name": "age",
          "type": "string"
        },
        {
          "internalType": "string",
          "name": "name",
          "type": "string"
        },
        {
          "internalType": "uint256",
          "name": "voteCount",
          "type": "uint256"
        },
        {
          "internalType": "address",
          "name": "_address",
          "type": "address"
        }
      ],
      "stateMutability": "view",
      "type": "function"
    },
    {
      "inputs": [],
      "name": "getCandidate",
      "outputs": [
        {
          "internalType": "address[]",
          "name": "",
          "type": "address[]"
        }
      ],
      "stateMutability": "view",
      "type": "function"
    },
    {
      "inputs": [],
      "name": "getCandidateLength",
      "outputs": [
        {
          "internalType": "uint256",
          "name": "",
          "type": "uint256"
        }
      ],
      "stateMutability": "view",
      "type": "function"
    },
    {
      "inputs": [
        {
          "internalType": "address",
          "name": "_address",
          "type": "address"
        }
      ],
      "name": "getCandidatedata",
      "outputs": [
        {
          "internalType": "string",
          "name": "",
          "type": "string"
        },
        {
          "internalType": "string",
          "name": "",
          "type": "string"
        },
        {
          "internalType": "uint256",
          "name": "",
          "type": "uint256"
        },
        {
          "internalType": "uint256",
          "name": "",
          "type": "uint256"
        },
        {
          "internalType": "address",
          "name": "",
          "type": "address"
        }
      ],
      "stateMutability": "view",
      "type": "function"
    },
    {
      "inputs": [],
      "name": "getVotedVoterList",
      "outputs": [
        {
          "internalType": "address[]",
          "name": "",
          "type": "address[]"
        }
      ],
      "stateMutability": "view",
      "type": "function"
    },
    {
      "inputs": [],
      "name": "getVoterLength",
      "outputs": [
        {
          "internalType": "uint256",
          "name": "",
          "type": "uint256"
        }
      ],
      "stateMutability": "view",
      "type": "function"
    },
    {
      "inputs": [],
      "name": "getVoterList",
      "outputs": [
        {
          "internalType": "address[]",
          "name": "",
          "type": "address[]"
        }
      ],
      "stateMutability": "view",
      "type": "function"
    },
    {
      "inputs": [
        {
          "internalType": "address",
          "name": "_address",
          "type": "address"
        }
      ],
      "name": "getVoterdata",
      "outputs": [
        {
          "internalType": "uint256",
          "name": "",
          "type": "uint256"
        },
        {
          "internalType": "string",
          "name": "",
          "type": "string"
        },
        {
          "internalType": "address",
          "name": "",
          "type": "address"
        },
        {
          "internalType": "uint256",
          "name": "",
          "type": "uint256"
        },
        {
          "internalType": "bool",
          "name": "",
          "type": "bool"
        }
      ],
      "stateMutability": "view",
      "type": "function"
    },
    {
      "inputs": [],
      "name": "pickPresenter",
      "outputs": [
        {
          "internalType": "address",
          "name": "",
          "type": "address"
        }
      ],
      "stateMutability": "view",
      "type": "function"
    },
    {
      "inputs": [
        {
          "internalType": "address",
          "name": "_address",
          "type": "address"
        },
        {
          "internalType": "string",
          "name": "_age",
          "type": "string"
        },
        {
          "internalType": "string",
          "name": "_name",
          "type": "string"
        }
      ],
      "name": "setCandidate",
      "outputs": [],
      "stateMutability": "nonpayable",
      "type": "function"
    },
    {
      "inputs": [
        {
          "internalType": "address",
          "name": "_candidateAddress",
          "type": "address"
        },
        {
          "internalType": "uint256",
          "name": "_candidateVoteId",
          "type": "uint256"
        }
      ],
      "name": "vote",
      "outputs": [],
      "stateMutability": "nonpayable",
      "type": "function"
    },
    {
      "inputs": [
        {
          "internalType": "uint256",
          "name": "",
          "type": "uint256"
        }
      ],
      "name": "votedVoters",
      "outputs": [
        {
          "internalType": "address",
          "name": "",
          "type": "address"
        }
      ],
      "stateMutability": "view",
      "type": "function"
    },
    {
      "inputs": [
        {
          "internalType": "address",
          "name": "_address",
          "type": "address"
        },
        {
          "internalType": "string",
          "name": "_name",
          "type": "string"
        }
      ],
      "name": "voterRight",
      "outputs": [],
      "stateMutability": "nonpayable",
      "type": "function"
    },
    {
      "inputs": [
        {
          "internalType": "address",
          "name": "",
          "type": "address"
        }
      ],
      "name": "voters",
      "outputs": [
        {
          "internalType": "uint256",
          "name": "voter_voterId",
          "type": "uint256"
        },
        {
          "internalType": "string",
          "name": "voter_name",
          "type": "string"
        },
        {
          "internalType": "address",
          "name": "voter_address",
          "type": "address"
        },
        {
          "internalType": "uint256",
          "name": "voter_allowed",
          "type": "uint256"
        },
        {
          "internalType": "bool",
          "name": "voter_voted",
          "type": "bool"
        },
        {
          "internalType": "uint256",
          "name": "voter_vote",
          "type": "uint256"
        }
      ],
      "stateMutability": "view",
      "type": "function"
    },
    {
      "inputs": [
        {
          "internalType": "uint256",
          "name": "",
          "type": "uint256"
        }
      ],
      "name": "votersAddress",
      "outputs": [
        {
          "internalType": "address",
          "name": "",
          "type": "address"
        }
      ],
      "stateMutability": "view",
      "type": "function"
    },
    {
      "inputs": [],
      "name": "votingOrganizer",
      "outputs": [
        {
          "internalType": "address",
          "name": "",
          "type": "address"
        }
      ],
      "stateMutability": "view",
      "type": "function"
    }
  ],
  "bytecode": "0x608060405234801561001057600080fd5b5033600260006101000a81548173ffffffffffffffffffffffffffffffffffffffff021916908373ffffffffffffffffffffffffffffffffffffffff1602179055506123a6806100616000396000f3fe608060405234801561001057600080fd5b50600436106101215760003560e01c80637b4c2fe7116100ad578063b28d92ae11610071578063b28d92ae14610327578063b63c82ca14610345578063b9be315214610379578063c5036fd414610397578063f7522a83146103cb57610121565b80637b4c2fe7146102645780638ab66a90146102825780638e945685146102b6578063a3ec138d146102d4578063a73889671461030957610121565b80635f74bbde116100f45780635f74bbde146101c2578063676f243a146101de57806370218b85146101fa5780637831ffb3146102185780637a60ba411461024857610121565b806305ad45a4146101265780633a88251a1461014457806343242daa146101745780635cc48aa7146101a4575b600080fd5b61012e6103e9565b60405161013b91906115d5565b60405180910390f35b61015e60048036038101906101599190611630565b6103f6565b60405161016b919061169e565b60405180910390f35b61018e60048036038101906101899190611630565b610435565b60405161019b919061169e565b60405180910390f35b6101ac610474565b6040516101b9919061169e565b60405180910390f35b6101dc60048036038101906101d791906116e5565b61049a565b005b6101f860048036038101906101f3919061186b565b610661565b005b61020261084c565b60405161020f9190611985565b60405180910390f35b610232600480360381019061022d9190611630565b6108da565b60405161023f919061169e565b60405180910390f35b610262600480360381019061025d91906119a7565b610919565b005b61026c610b2a565b604051610279919061169e565b60405180910390f35b61029c60048036038101906102979190611a32565b610d3d565b6040516102ad959493929190611ade565b60405180910390f35b6102be610ea3565b6040516102cb9190611985565b60405180910390f35b6102ee60048036038101906102e99190611a32565b610f31565b60405161030096959493929190611b5a565b60405180910390f35b610311611022565b60405161031e91906115d5565b60405180910390f35b61032f61102e565b60405161033c9190611985565b60405180910390f35b61035f600480360381019061035a9190611a32565b6110bc565b604051610370959493929190611bc2565b60405180910390f35b61038161135c565b60405161038e91906115d5565b60405180910390f35b6103b160048036038101906103ac9190611a32565b611368565b6040516103c2959493929190611c23565b60405180910390f35b6103d361158b565b6040516103e091906115d5565b60405180910390f35b6000600680549050905090565b6003818154811061040657600080fd5b906000526020600020016000915054906101000a900473ffffffffffffffffffffffffffffffffffffffff1681565b6006818154811061044557600080fd5b906000526020600020016000915054906101000a900473ffffffffffffffffffffffffffffffffffffffff1681565b600260009054906101000a900473ffffffffffffffffffffffffffffffffffffffff1681565b6000600760003373ffffffffffffffffffffffffffffffffffffffff1673ffffffffffffffffffffffffffffffffffffffff16815260200190815260200160002090508060040160009054906101000a900460ff161561052f576040517f08c379a000000000000000000000000000000000000000000000000000000000815260040161052690611cc9565b60405180910390fd5b6000816003015403610576576040517f08c379a000000000000000000000000000000000000000000000000000000000815260040161056d90611d35565b60405180910390fd5b60018160040160006101000a81548160ff0219169083151502179055508181600501819055506005339080600181540180825580915050600190039060005260206000200160009091909190916101000a81548173ffffffffffffffffffffffffffffffffffffffff021916908373ffffffffffffffffffffffffffffffffffffffff1602179055508060030154600460008573ffffffffffffffffffffffffffffffffffffffff1673ffffffffffffffffffffffffffffffffffffffff16815260200190815260200160002060030160008282546106559190611d84565b92505081905550505050565b3373ffffffffffffffffffffffffffffffffffffffff16600260009054906101000a900473ffffffffffffffffffffffffffffffffffffffff1673ffffffffffffffffffffffffffffffffffffffff16146106f1576040517f08c379a00000000000000000000000000000000000000000000000000000000081526004016106e890611e2a565b60405180910390fd5b6106fb6000611598565b600061070760006115ae565b90506000600760008573ffffffffffffffffffffffffffffffffffffffff1673ffffffffffffffffffffffffffffffffffffffff1681526020019081526020016000209050600081600301541461075d57600080fd5b60018160030181905550828160010190816107789190612056565b50838160020160006101000a81548173ffffffffffffffffffffffffffffffffffffffff021916908373ffffffffffffffffffffffffffffffffffffffff1602179055508181600001819055506103e8816005018190555060008160040160006101000a81548160ff021916908315150217905550817f6eea93ee3bd3f0aaa240450f0fe70bc5964a830445ff8f165fd9eb1ec1ede3d8848684600301548560040160009054906101000a900460ff16866005015460405161083e959493929190612128565b60405180910390a250505050565b606060038054806020026020016040519081016040528092919081815260200182805480156108d057602002820191906000526020600020905b8160009054906101000a900473ffffffffffffffffffffffffffffffffffffffff1673ffffffffffffffffffffffffffffffffffffffff1681526020019060010190808311610886575b5050505050905090565b600581815481106108ea57600080fd5b906000526020600020016000915054906101000a900473ffffffffffffffffffffffffffffffffffffffff1681565b3373ffffffffffffffffffffffffffffffffffffffff16600260009054906101000a900473ffffffffffffffffffffffffffffffffffffffff1673ffffffffffffffffffffffffffffffffffffffff16146109a9576040517f08c379a00000000000000000000000000000000000000000000000000000000081526004016109a0906121f4565b60405180910390fd5b6109b36001611598565b60006109bf60016115ae565b90506000600460008673ffffffffffffffffffffffffffffffffffffffff1673ffffffffffffffffffffffffffffffffffffffff168152602001908152602001600020905083816001019081610a159190612056565b5082816002019081610a279190612056565b5081816000018190555060008160030181905550848160040160006101000a81548173ffffffffffffffffffffffffffffffffffffffff021916908373ffffffffffffffffffffffffffffffffffffffff1602179055506003859080600181540180825580915050600190039060005260206000200160009091909190916101000a81548173ffffffffffffffffffffffffffffffffffffffff021916908373ffffffffffffffffffffffffffffffffffffffff160217905550817f08dd4bc574cc17d01af017961e76f11c5eee75ffe07e2d36f90b7e2a83ef754d8585846003015489604051610b1b9493929190612214565b60405180910390a25050505050565b60003373ffffffffffffffffffffffffffffffffffffffff16600260009054906101000a900473ffffffffffffffffffffffffffffffffffffffff1673ffffffffffffffffffffffffffffffffffffffff1614610bbc576040517f08c379a0000000000000000000000000000000000000000000000000000000008152600401610bb3906122d9565b60405180910390fd5b60008080600090505b610bcd6103e9565b811015610d3457826004600060038481548110610bed57610bec6122f9565b5b9060005260206000200160009054906101000a900473ffffffffffffffffffffffffffffffffffffffff1673ffffffffffffffffffffffffffffffffffffffff1673ffffffffffffffffffffffffffffffffffffffff168152602001908152602001600020600301541115610d21576004600060038381548110610c7457610c736122f9565b5b9060005260206000200160009054906101000a900473ffffffffffffffffffffffffffffffffffffffff1673ffffffffffffffffffffffffffffffffffffffff1673ffffffffffffffffffffffffffffffffffffffff16815260200190815260200160002060030154925060038181548110610cf357610cf26122f9565b5b9060005260206000200160009054906101000a900473ffffffffffffffffffffffffffffffffffffffff1691505b8080610d2c90612328565b915050610bc5565b50809250505090565b6004602052806000526040600020600091509050806000015490806001018054610d6690611e79565b80601f0160208091040260200160405190810160405280929190818152602001828054610d9290611e79565b8015610ddf5780601f10610db457610100808354040283529160200191610ddf565b820191906000526020600020905b815481529060010190602001808311610dc257829003601f168201915b505050505090806002018054610df490611e79565b80601f0160208091040260200160405190810160405280929190818152602001828054610e2090611e79565b8015610e6d5780601f10610e4257610100808354040283529160200191610e6d565b820191906000526020600020905b815481529060010190602001808311610e5057829003601f168201915b5050505050908060030154908060040160009054906101000a900473ffffffffffffffffffffffffffffffffffffffff16905085565b60606005805480602002602001604051908101604052809291908181526020018280548015610f2757602002820191906000526020600020905b8160009054906101000a900473ffffffffffffffffffffffffffffffffffffffff1673ffffffffffffffffffffffffffffffffffffffff1681526020019060010190808311610edd575b5050505050905090565b6007602052806000526040600020600091509050806000015490806001018054610f5a90611e79565b80601f0160208091040260200160405190810160405280929190818152602001828054610f8690611e79565b8015610fd35780601f10610fa857610100808354040283529160200191610fd3565b820191906000526020600020905b815481529060010190602001808311610fb657829003601f168201915b5050505050908060020160009054906101000a900473ffffffffffffffffffffffffffffffffffffffff16908060030154908060040160009054906101000a900460ff16908060050154905086565b60018060000154905081565b606060068054806020026020016040519081016040528092919081815260200182805480156110b257602002820191906000526020600020905b8160009054906101000a900473ffffffffffffffffffffffffffffffffffffffff1673ffffffffffffffffffffffffffffffffffffffff1681526020019060010190808311611068575b5050505050905090565b6060806000806000600460008773ffffffffffffffffffffffffffffffffffffffff1673ffffffffffffffffffffffffffffffffffffffff168152602001908152602001600020600101600460008873ffffffffffffffffffffffffffffffffffffffff1673ffffffffffffffffffffffffffffffffffffffff168152602001908152602001600020600201600460008973ffffffffffffffffffffffffffffffffffffffff1673ffffffffffffffffffffffffffffffffffffffff16815260200190815260200160002060000154600460008a73ffffffffffffffffffffffffffffffffffffffff1673ffffffffffffffffffffffffffffffffffffffff16815260200190815260200160002060030154600460008b73ffffffffffffffffffffffffffffffffffffffff1673ffffffffffffffffffffffffffffffffffffffff16815260200190815260200160002060040160009054906101000a900473ffffffffffffffffffffffffffffffffffffffff1684805461123d90611e79565b80601f016020809104026020016040519081016040528092919081815260200182805461126990611e79565b80156112b65780601f1061128b576101008083540402835291602001916112b6565b820191906000526020600020905b81548152906001019060200180831161129957829003601f168201915b505050505094508380546112c990611e79565b80601f01602080910402602001604051908101604052809291908181526020018280546112f590611e79565b80156113425780601f1061131757610100808354040283529160200191611342565b820191906000526020600020905b81548152906001019060200180831161132557829003601f168201915b505050505093509450945094509450945091939590929450565b60008060000154905081565b600060606000806000600760008773ffffffffffffffffffffffffffffffffffffffff1673ffffffffffffffffffffffffffffffffffffffff16815260200190815260200160002060000154600760008873ffffffffffffffffffffffffffffffffffffffff1673ffffffffffffffffffffffffffffffffffffffff168152602001908152602001600020600101600760008973ffffffffffffffffffffffffffffffffffffffff1673ffffffffffffffffffffffffffffffffffffffff16815260200190815260200160002060020160009054906101000a900473ffffffffffffffffffffffffffffffffffffffff16600760008a73ffffffffffffffffffffffffffffffffffffffff1673ffffffffffffffffffffffffffffffffffffffff16815260200190815260200160002060030154600760008b73ffffffffffffffffffffffffffffffffffffffff1673ffffffffffffffffffffffffffffffffffffffff16815260200190815260200160002060040160009054906101000a900460ff168380546114f890611e79565b80601f016020809104026020016040519081016040528092919081815260200182805461152490611e79565b80156115715780601f1061154657610100808354040283529160200191611571565b820191906000526020600020905b81548152906001019060200180831161155457829003601f168201915b505050505093509450945094509450945091939590929450565b6000600380549050905090565b6001816000016000828254019250508190555050565b600081600001549050919050565b6000819050919050565b6115cf816115bc565b82525050565b60006020820190506115ea60008301846115c6565b92915050565b6000604051905090565b600080fd5b600080fd5b61160d816115bc565b811461161857600080fd5b50565b60008135905061162a81611604565b92915050565b600060208284031215611646576116456115fa565b5b60006116548482850161161b565b91505092915050565b600073ffffffffffffffffffffffffffffffffffffffff82169050919050565b60006116888261165d565b9050919050565b6116988161167d565b82525050565b60006020820190506116b3600083018461168f565b92915050565b6116c28161167d565b81146116cd57600080fd5b50565b6000813590506116df816116b9565b92915050565b600080604083850312156116fc576116fb6115fa565b5b600061170a858286016116d0565b925050602061171b8582860161161b565b9150509250929050565b600080fd5b600080fd5b6000601f19601f8301169050919050565b7f4e487b7100000000000000000000000000000000000000000000000000000000600052604160045260246000fd5b6117788261172f565b810181811067ffffffffffffffff8211171561179757611796611740565b5b80604052505050565b60006117aa6115f0565b90506117b6828261176f565b919050565b600067ffffffffffffffff8211156117d6576117d5611740565b5b6117df8261172f565b9050602081019050919050565b82818337600083830152505050565b600061180e611809846117bb565b6117a0565b90508281526020810184848401111561182a5761182961172a565b5b6118358482856117ec565b509392505050565b600082601f83011261185257611851611725565b5b81356118628482602086016117fb565b91505092915050565b60008060408385031215611882576118816115fa565b5b6000611890858286016116d0565b925050602083013567ffffffffffffffff8111156118b1576118b06115ff565b5b6118bd8582860161183d565b9150509250929050565b600081519050919050565b600082825260208201905092915050565b6000819050602082019050919050565b6118fc8161167d565b82525050565b600061190e83836118f3565b60208301905092915050565b6000602082019050919050565b6000611932826118c7565b61193c81856118d2565b9350611947836118e3565b8060005b8381101561197857815161195f8882611902565b975061196a8361191a565b92505060018101905061194b565b5085935050505092915050565b6000602082019050818103600083015261199f8184611927565b905092915050565b6000806000606084860312156119c0576119bf6115fa565b5b60006119ce868287016116d0565b935050602084013567ffffffffffffffff8111156119ef576119ee6115ff565b5b6119fb8682870161183d565b925050604084013567ffffffffffffffff811115611a1c57611a1b6115ff565b5b611a288682870161183d565b9150509250925092565b600060208284031215611a4857611a476115fa565b5b6000611a56848285016116d0565b91505092915050565b600081519050919050565b600082825260208201905092915050565b60005b83811015611a99578082015181840152602081019050611a7e565b60008484015250505050565b6000611ab082611a5f565b611aba8185611a6a565b9350611aca818560208601611a7b565b611ad38161172f565b840191505092915050565b600060a082019050611af360008301886115c6565b8181036020830152611b058187611aa5565b90508181036040830152611b198186611aa5565b9050611b2860608301856115c6565b611b35608083018461168f565b9695505050505050565b60008115159050919050565b611b5481611b3f565b82525050565b600060c082019050611b6f60008301896115c6565b8181036020830152611b818188611aa5565b9050611b90604083018761168f565b611b9d60608301866115c6565b611baa6080830185611b4b565b611bb760a08301846115c6565b979650505050505050565b600060a0820190508181036000830152611bdc8188611aa5565b90508181036020830152611bf08187611aa5565b9050611bff60408301866115c6565b611c0c60608301856115c6565b611c19608083018461168f565b9695505050505050565b600060a082019050611c3860008301886115c6565b8181036020830152611c4a8187611aa5565b9050611c59604083018661168f565b611c6660608301856115c6565b611c736080830184611b4b565b9695505050505050565b7f596f75206861766520616c726561647920766f74656400000000000000000000600082015250565b6000611cb3601683611a6a565b9150611cbe82611c7d565b602082019050919050565b60006020820190508181036000830152611ce281611ca6565b9050919050565b7f596f752068617665206e6f20726967687420746f20766f746500000000000000600082015250565b6000611d1f601983611a6a565b9150611d2a82611ce9565b602082019050919050565b60006020820190508181036000830152611d4e81611d12565b9050919050565b7f4e487b7100000000000000000000000000000000000000000000000000000000600052601160045260246000fd5b6000611d8f826115bc565b9150611d9a836115bc565b9250828201905080821115611db257611db1611d55565b5b92915050565b7f4f6e6c792073797374656d2061646d696e2063616e2063726561746520766f7460008201527f696e67207269676874732e000000000000000000000000000000000000000000602082015250565b6000611e14602b83611a6a565b9150611e1f82611db8565b604082019050919050565b60006020820190508181036000830152611e4381611e07565b9050919050565b7f4e487b7100000000000000000000000000000000000000000000000000000000600052602260045260246000fd5b60006002820490506001821680611e9157607f821691505b602082108103611ea457611ea3611e4a565b5b50919050565b60008190508160005260206000209050919050565b60006020601f8301049050919050565b600082821b905092915050565b600060088302611f0c7fffffffffffffffffffffffffffffffffffffffffffffffffffffffffffffffff82611ecf565b611f168683611ecf565b95508019841693508086168417925050509392505050565b6000819050919050565b6000611f53611f4e611f49846115bc565b611f2e565b6115bc565b9050919050565b6000819050919050565b611f6d83611f38565b611f81611f7982611f5a565b848454611edc565b825550505050565b600090565b611f96611f89565b611fa1818484611f64565b505050565b5b81811015611fc557611fba600082611f8e565b600181019050611fa7565b5050565b601f82111561200a57611fdb81611eaa565b611fe484611ebf565b81016020851015611ff3578190505b612007611fff85611ebf565b830182611fa6565b50505b505050565b600082821c905092915050565b600061202d6000198460080261200f565b1980831691505092915050565b6000612046838361201c565b9150826002028217905092915050565b61205f82611a5f565b67ffffffffffffffff81111561207857612077611740565b5b6120828254611e79565b61208d828285611fc9565b600060209050601f8311600181146120c057600084156120ae578287015190505b6120b8858261203a565b865550612120565b601f1984166120ce86611eaa565b60005b828110156120f6578489015182556001820191506020850194506020810190506120d1565b86831015612113578489015161210f601f89168261201c565b8355505b6001600288020188555050505b505050505050565b600060a08201905081810360008301526121428188611aa5565b9050612151602083018761168f565b61215e60408301866115c6565b61216b6060830185611b4b565b61217860808301846115c6565b9695505050505050565b7f4f6e6c792041646d696e2063616e20617574686f72697a652063616e6469646160008201527f74652e2e00000000000000000000000000000000000000000000000000000000602082015250565b60006121de602483611a6a565b91506121e982612182565b604082019050919050565b6000602082019050818103600083015261220d816121d1565b9050919050565b6000608082019050818103600083015261222e8187611aa5565b905081810360208301526122428186611aa5565b905061225160408301856115c6565b61225e606083018461168f565b95945050505050565b7f53797374656d2041646d696e2063616e2063616c6c20746865207069636b507260008201527f6573656e746572206d6574686f642e2e2e000000000000000000000000000000602082015250565b60006122c3603183611a6a565b91506122ce82612267565b604082019050919050565b600060208201905081810360008301526122f2816122b6565b9050919050565b7f4e487b7100000000000000000000000000000000000000000000000000000000600052603260045260246000fd5b6000612333826115bc565b91507fffffffffffffffffffffffffffffffffffffffffffffffffffffffffffffffff820361236557612364611d55565b5b60018201905091905056fea26469706673582212209a4cfbd2f4b6ae9e28f833d048edf328b6b673e04634423e8cc947dfada6be0a64736f6c63430008110033",
  "linkReferences": {},
  "deployedLinkReferences": {}
}